:100000000C942A000C9447000C9447000C94470071
:100010000C9447000C9447000C941F040C94CD03DF
:100020000C94F6030C94A4030C9447000C94470022
:100030000C9447000C9447000C9447000C94470024
:100040000C9447000C9447000C9447000C94470014
:100050000C94470011241FBECFE5D8E0DEBFCDBF12
:1000600010E0A0E6B0E0E6E7F9E002C005900D92EE
:10007000A838B107D9F720E0A8E8B0E001C01D9288
:10008000A039B207E1F70E94D6010C94B9040C9490
:100090000000CF93C82F60E080E10E9408036C2F1E
:1000A000661F6627661F8FE10E940803C6FB66274E
:1000B00060F98EE10E940803C5FB662760F98DE1B7
:1000C0000E940803C4FB662760F98CE10E940803C4
:1000D00061E081E10E9408038FEC97E00197F1F75E
:1000E00000C0000060E081E10E9408038FEC97E00F
:1000F0000197F1F700C00000C3FB662760F98FE1AC
:100100000E940803C2FB662760F98EE10E94080383
:10011000C1FB662760F98DE10E9408036C2F6170B6
:100120008CE10E94080361E081E10E9408038FECEA
:1001300097E00197F1F700C0000060E081E10E94C4
:1001400008038FEC97E00197F1F700C00000CF9112
:100150000895CF93C82F61E080E10E9408036C2FBF
:10016000661F6627661F8FE10E940803C6FB66278D
:1001700060F98EE10E940803C5FB662760F98DE1F6
:100180000E940803C4FB662760F98CE10E94080303
:1001900061E081E10E9408038FEC97E00197F1F79D
:1001A00000C0000060E081E10E9408038FEC97E04E
:1001B0000197F1F700C00000C3FB662760F98FE1EB
:1001C0000E940803C2FB662760F98EE10E940803C3
:1001D000C1FB662760F98DE10E9408036C2F6170F6
:1001E0008CE10E94080361E081E10E9408038FEC2A
:1001F00097E00197F1F700C0000060E081E10E9404
:1002000008038FEC97E00197F1F700C00000CF9151
:1002100008952FE788E391E0215080409040E1F776
:1002200000C0000082E00E94490088E20E9449006C
:100230008CE00E94490081E00E9449008FEC97E029
:100240000197F1F700C0000086E00C9449000C947F
:10025000A9002F923F924F925F926F927F928F925E
:100260009F92AF92BF92CF92DF92EF92FF920F9345
:100270001F93CF93DF93CDB7DEB72D970FB6F894CA
:10028000DEBF0FBECDBF29013A01862E7B871C0140
:10029000A0E00E94AD04D9F480E32D960FB6F89447
:1002A000DEBF0FBECDBFDF91CF911F910F91FF90A9
:1002B000EF90DF90CF90BF90AF909F908F907F9006
:1002C0006F905F904F903F902F900C94A900912CCD
:1002D00081E090E08C0F9D1F890D911D9D878C877B
:1002E0008AE0A82EB12CC12CD12CE12CF12C00E0FD
:1002F00010E09201A301682D7B85C1010E944E048C
:10030000205DEC85FD8520839201A301682D7B850E
:10031000C1010E94500429013A01862E7B871C01ED
:100320009394A0E00E94AD0499F6992041F0FE015B
:10033000E90DF11D80810E94A9009A94F6CF2D96B7
:100340000FB6F894DEBF0FBECDBFDF91CF911F91E6
:100350000F91FF90EF90DF90CF90BF90AF909F9064
:100360008F907F906F905F904F903F902F90089567
:100370000F931F93CF938C01C0E0F801EC0FF11D98
:100380008081882321F00E94A900CF5FF6CFCF9112
:100390001F910F910895811102C080E803C0813040
:1003A00021F480EC860F0C94490008950E94890383
:1003B0000E94090166E081E00E940E020E9448044A
:1003C00080E690E00E94B8010E949C03C0E06AE0D1
:1003D00080E00E94CB012C2F30E040E050E060E054
:1003E00070E080E090E00E942901CF5FCA3009F4FC
:1003F000C0E081E30E949F03D82F60E081E00E946B
:10040000CB018D2F0E9427012FEF81EE94E0215028
:1004100080409040E1F700C00000D9CF813041F02A
:1004200028F0823039F43E9A3F9A04C03E9801C0C9
:100430003E9A3F983D9886B1887F86B986B1682BF1
:1004400066B9379A0895982F9695969596958770E0
:10045000613009F441C020F0623009F489C0089588
:10046000913099F028F09230E9F0933041F10895FD
:100470004AB321E030E0B90102C0660F771F8A95C8
:10048000E2F7CB01842B8ABB089547B321E030E02B
:10049000B90102C0660F771F8A95E2F7CB01842B62
:1004A00087BB089544B321E030E0B90102C0660F74
:1004B000771F8A95E2F7CB01842B84BB089541B363
:1004C00021E030E0B90102C0660F771F8A95E2F79C
:1004D000CB01842B81BB08959130B9F028F0923084
:1004E00029F19330A1F108954AB321E030E0B90138
:1004F00002C0660F771F8A95E2F7CB018095942F93
:1005000098239ABB9BB389234BC047B321E030E0CB
:10051000B90102C0660F771F8A95E2F7CB0180957B
:10052000942F982397BB98B389234CC044B321E000
:1005300030E0B90102C0660F771F8A95E2F7CB0160
:100540008095942F982394BB95B389234DC041B3D4
:1005500021E030E0B90102C0660F771F8A95E2F70B
:10056000CB018095942F982391BB92B389234EC0E1
:100570009130C1F028F0923039F19330B9F10895FB
:100580004AB321E030E0B90102C0660F771F8A95B7
:10059000E2F7CB01962F909594239ABB9BB3892BBE
:1005A0008BBB089547B321E030E0B90102C0660F6C
:1005B000771F8A95E2F7CB01962F9095942397BBEE
:1005C00098B3892B88BB089544B321E030E0B9018A
:1005D00002C0660F771F8A95E2F7CB01962F9095A0
:1005E000942394BB95B3892B85BB089541B321E037
:1005F00030E0B90102C0660F771F8A95E2F7CB01A0
:10060000962F9095942391BB92B3892B82BB08952A
:10061000982F96959695969587706130C1F5913093
:1006200091F028F09230D9F0933029F108954BB32E
:1006300021E030E0B90102C0660F771F8A95E2F72A
:10064000CB01842B3AC048B321E030E0B90102C0AD
:10065000660F771F8A95E2F7CB01842B3CC045B328
:1006600021E030E0B90102C0660F771F8A95E2F7FA
:10067000CB01842B3EC042B321E030E0B90102C07F
:10068000660F771F8A95E2F7CB01842B40C061117A
:100690003FC09130A1F028F09230F9F0933059F139
:1006A00008954BB321E030E0B90102C0660F771F17
:1006B0008A95E2F7CB01809584238BBB089548B3DC
:1006C00021E030E0B90102C0660F771F8A95E2F79A
:1006D000CB018095842388BB089545B321E030E0A9
:1006E000B90102C0660F771F8A95E2F7CB018095AA
:1006F000842385BB089542B321E030E0B90102C0F4
:10070000660F771F8A95E2F7CB018095842382BB21
:1007100008950F931F93CF9307E610E0C0E0F80110
:1007200061918F018C2F0E942302CF5FC032B9F7F5
:10073000CF911F910F9108956C986E9A08958FB97B
:10074000779BFECF8FB108951F920F920FB60F9235
:1007500011242F933F934F935F936F937F938F93C6
:100760009F93AF93BF93EF93FF93E0918E00F0912F
:100770008F00309709F00995FF91EF91BF91AF91EC
:100780009F918F917F916F915F914F913F912F91A9
:100790000F900FBE0F901F9018951F920F920FB6DB
:1007A0000F9211242F933F934F935F936F937F93F7
:1007B0008F939F93AF93BF93EF93FF93E0918C0040
:1007C000F0918D00309709F00995FF91EF91BF915D
:1007D000AF919F918F917F916F915F914F913F91D9
:1007E0002F910F900FBE0F901F9018951F920F9290
:1007F0000FB60F9211242F933F934F935F936F93F4
:100800007F938F939F93AF93BF93EF93FF93E09169
:100810008A00F0918B00309709F00995FF91EF91D4
:10082000BF91AF919F918F917F916F915F914F9108
:100830003F912F910F900FBE0F901F9018951F9210
:100840000F920FB60F9211242F933F934F935F9304
:100850006F937F938F939F93AF93BF93EF93FF9388
:10086000E0918800F0918900309709F00995FF9197
:10087000EF91BF91AF919F918F917F916F915F9118
:100880004F913F912F910F900FBE0F901F90189591
:10089000599883E389B9549A539A0895689401C08A
:1008A000E8948F929F92CF93DF930E945C04DF9134
:1008B000CF919F908F90089588249924F401E401AA
:1008C000B0E49F93AA279A158B049C04ED05FE05BE
:1008D000CF05D007A10798F4AD2FDC2FCF2FFE2F27
:1008E000E92D982C892E982F872F762F652F542F3E
:1008F000432F322F2227B85031F7BF9127C01B2E2C
:10090000BF91BB27220F331F441F551F661F771F40
:10091000881F991F881C991CEE1FFF1FCC1FDD1F0D
:10092000AA1FBB1F8A149B04EC05FD05CE05DF053D
:10093000A007B10748F08A189B08EC09FD09CE0909
:10094000DF09A00BB10B21601A94E1F62EF494019B
:10095000AF01BE01CD01000C08950024A7FD009455
:100960002A17300540055005600570058005900583
:060970000895F894FFCF8A
:10097600536C617665200001000000000000010054
:10098600000000010100010000000000000000005E
:08099600000202000001000054
:00000001FF
